:020000040800F2
:1000000030100020FD020008810300088103000871
:1000100081030008810300088103000880B400AF59
:1000200000BFBD4680BC704780B500AF034B0222C5
:100030001A60002000F094F800BF80BD0800002086
:1000400080B400AF034B01221A6000BFBD4680BCE4
:10005000704700BF0800002080B500AF034B044A82
:100060001A60012000F07CF800BF80BD0C00002069
:100070004100000880B400AF034B044A1A6000BF7F
:10008000BD4680BC704700BF0C000020290000085E
:1000900080B400AF034B00221A6000BFBD4680BC95
:1000A000704700BF0800002080B400AF034B00225F
:1000B0001A6000BFBD4680BC704700BF1000002022
:1000C00080B400AF034B01221A6000BFBD4680BC64
:1000D000704700BF1000002080B500AF074B022220
:1000E0001A60074B1B68184600F01EF8FFF7C2FFA6
:1000F000044B054A1A6000BF80BD00BF10000020FD
:100100000000002014000020C100000880B500AFEE
:10011000034B044A1A60FFF79FFF00BF80BD00BF7A
:1001200014000020A900000880B483B000AF7860FC
:1001300002E07B68013B7B607B68002BF9D100BF4C
:1001400000BF0C37BD4680BC704780B400AF034B86
:100150001B68DBB21846BD4680BC704708080140EA
:1001600080B483B000AF78607B68012B06D10A4B66
:100170001B68094A43F40053136008E07B68002BB6
:1001800005D1054B1B68044A23F40053136000BFDC
:100190000C37BD4680BC70470C08014080B400AFEE
:1001A0000F4B1B680E4A43F0040313600D4B1B6892
:1001B0000C4A23F4700313600A4B0A4A1B6813604D
:1001C000094B1B68084A23F470031360064B1B6835
:1001D000054A43F02233136000BFBD4680BC704720
:1001E00018100240000801400408014080B500AF2B
:1001F00000F054F8FFF712FF064B074A1A60074B4E
:10020000074A1A60074B084A1A60084B084A1A60E6
:1002100000BF80BD2C000020A902000820000020A3
:100220008502000814000020C10000080C00002016
:100230009100000880B500AFFFF7B0FFFFF7D6FFD1
:100240000120FFF78DFFFBE780B582B000AF78603B
:100250007A68084B1B689A4203D8074B074A1A6012
:1002600001E0FFF753FF7B68054A136000BF0837C2
:10027000BD4680BD0400002020000020850200084B
:100280001800002080B400AF034B00221A6000BFAA
:10029000BD4680BC704700BF1C00002080B400AF8A
:1002A00000BFBD4680BC704780B500AF094B00223F
:1002B0001A60FFF74AFF03461A46074B1A60064BBF
:1002C0001B681846FFF7C0FF044B054A1A6000BFC1
:1002D00080BD00BF28000020240000202C0000204A
:1002E000E502000880B400AF034B01221A6000BF92
:1002F000BD4680BC704700BF2800002080B586B096
:1003000000AF1A4A1A4BD31A7B601A4B7B61184B09
:100310003B610023FB600AE07A69531C7B613B6907
:10032000591C396112781A70FB680133FB60FB6855
:100330007A689A42F0D8104A104BD31A3B600F4BA0
:100340003B610023BB6007E03B695A1C3A61002215
:100350001A70BB680133BB60BB683A689A42F3D835
:10036000FFF768FF00BF1837BD4680BD08000020BA
:10037000000000208C03000830000020080000204E
:0C03800080B500AFFFF7BAFF00BF80BDE2
:08038C003C0000001400000019
:0400000508000000EF
:00000001FF
